:100000000C945D000C9485000C9485000C94850084
:100010000C9485000C9485000C9485000C9485004C
:100020000C9485000C9485000C9485000C9485003C
:100030000C9485000C9485000C9485000C9485002C
:100040000C94B3030C9485000C9423040C94FD03CE
:100050000C9485000C9485000C9485000C9485000C
:100060000C9485000C94850000000008000201003B
:100070000003040700000000000000000000000072
:10008000250028002B0000000000240027002A0083
:10009000040404040404040402020202020203032E
:1000A0000303030301020408102040800102040836
:1000B0001020010204081020550411241FBECFEFA8
:1000C000D8E0DEBFCDBF22E0A8E5B1E001C01D92BF
:1000D000AE32B207E1F711E0A0E0B1E0EAE3FDE003
:1000E00002C005900D92A835B107D9F710E0CDE513
:1000F000D0E004C02197FE010E949506CC35D107BF
:10010000C9F70E949F040C949B060C94000090E099
:10011000FC01EC55FF4F249180579F4FFC018491C7
:10012000882399F090E0880F991FFC01EA57FF4F50
:10013000A591B491FC01E458FF4F859194918FB73C
:10014000F894EC91E22BEC938FBF089590E0FC01C2
:10015000E859FF4F2491FC01EC55FF4F3491FC010D
:10016000E057FF4FE491EE23C9F0222339F023300A
:1001700001F1A8F4213019F1223029F1F0E0EE0F5D
:10018000FF1FE458FF4FA591B4918FB7F894EC91FD
:10019000611126C030953E233C938FBF08952730D0
:1001A000A9F02830C9F0243049F7809180008F7D74
:1001B00003C0809180008F7780938000DFCF84B56B
:1001C0008F7784BDDBCF84B58F7DFBCF8091B0006E
:1001D0008F778093B000D2CF8091B0008F7DF9CF20
:1001E0003E2BDACFAF92BF92CF92DF92EF92FF9287
:1001F0000F931F93CF93DF936C017B018B01040F4F
:10020000151FEB015E01AE18BF08C017D10759F0EA
:100210006991D601ED91FC910190F081E02DC6012C
:100220000995892B79F7C501DF91CF911F910F9126
:10023000FF90EF90DF90CF90BF90AF900895FC01BA
:10024000538D448D252F30E0842F90E0821B930B3B
:10025000541710F0CF96089501970895FC01918DE1
:10026000828D981761F0A28DAE0FBF2FB11D5D96E4
:100270008C91928D9F5F9F73928F90E008958FEF86
:100280009FEF0895FC01918D828D981731F0828D3A
:10029000E80FF11D858D90E008958FEF9FEF089591
:1002A000FC01918D228D892F90E0805C9F4F821BF5
:1002B00091098F739927089589E791E00E94500171
:1002C00021E0892B09F420E0822F089580E090E05E
:1002D000892B29F00E945C0181110C940000089583
:1002E000FC01A48DA80FB92FB11DA35ABF4F2C91AB
:1002F000848D90E001968F739927848FA689B789A2
:100300002C93A089B1898C91837080648C93938D98
:10031000848D981306C00288F389E02D80818F7D3B
:1003200080830895EF92FF920F931F93CF93DF93F3
:10033000EC0181E0888F9B8D8C8D98131AC0E88921
:10034000F989808185FF15C09FB7F894EE89FF89F0
:100350006083E889F98980818370806480839FBF8E
:1003600081E090E0DF91CF911F910F91FF90EF908E
:100370000895F62E0B8D10E00F5F1F4F0F7311279E
:10038000E02E8C8D8E110CC00FB607FCFACFE889D9
:10039000F989808185FFF5CFCE010E947001F1CFF0
:1003A000EB8DEC0FFD2FF11DE35AFF4FF0829FB74D
:1003B000F8940B8FEA89FB8980818062CFCFCF933D
:1003C000DF93EC01888D8823B9F0AA89BB89E8897D
:1003D000F9898C9185FD03C0808186FD0DC00FB623
:1003E00007FCF7CF8C9185FFF2CF808185FFEDCFA1
:1003F000CE010E947001E9CFDF91CF910895089559
:1004000090E080E00895CF93DF93EC0160E08E816F
:100410000E94A60061E08E810E94A60060E08E81AD
:100420000E94A6008BE891E00197F1F7DF91CF9150
:100430000895CF92DF92EF92FF920F931F93CF9385
:10044000DF936C017C0187E0E80EF11CD0E0C0E096
:10045000062F10E0B8010C2E02C0759567950A941E
:10046000E2F76170F70181917F010E94A600219659
:10047000C430D10579F7C601DF91CF911F910F915B
:10048000FF90EF90DF90CF900C940302CF92DF9219
:10049000EF92FF920F931F93CF93DF93EC01F62E11
:1004A000642F8C810E94A6008D818F3F19F060E03F
:1004B0000E94A6000F2D10E08F8584FF25C06E01DD
:1004C00087E0C80ED11CF12CE12CB8010E2C02C023
:1004D000759567950A94E2F76170F60181916F0155
:1004E0000E94A600FFEFEF1AFF0A88E0E816F10469
:1004F00061F7CE01DF91CF911F910F91FF90EF90A7
:10050000DF90CF900C940302B80184E07595679555
:100510008A95E1F7CE010E9419026F2DCE01DF917D
:10052000CF911F910F91FF90EF90DF90CF900C949F
:10053000190240E0682F86E192E00C944602CF93C6
:10054000DF93823029F490912502986090932502E0
:100550008093290210922A0280E480932B0280E18A
:1005600080932C0280E580932D0280911A020E94D4
:10057000870080911B028F3F11F00E9487008091BD
:100580001C020E948700C6E1D2E09E012651324043
:100590008091250284FD0AC084E090E0219628170E
:1005A00039073CF48E810E948700EFCF88E090E00D
:1005B000F5CF8BE39DE00197F1F760E080911A029F
:1005C0000E94A60060E080911C020E94A60080911B
:1005D0001B028F3F19F060E00E94A6008091250267
:1005E00084FD39C063E086E192E00E941902CBE409
:1005F000D6E4CE010197F1F763E086E192E00E9434
:1006000019022197F1F763E086E192E00E94190256
:1006100083E592E00197F1F762E086E192E00E94C3
:1006200019028091250280620E94990284E08093E1
:1006300026028CE00E94990281E00E9499028BE3DD
:100640009FE10197F1F782E08093270286E0DF9136
:10065000CF910C94990280620E9499028BE496E4F7
:100660000197F1F78091250280620E94990283E54B
:1006700092E00197F1F78091250280620E94990231
:10068000D0CF90912902691710F06FEF690FE62F14
:10069000F0E0EA5EFD4F9489890F80680C9499021E
:1006A00041E00E94460281E090E00895FB01019044
:1006B0000020E9F73197AF01461B570BDC01ED91A4
:1006C000FC910280F381E02D09948F929F92AF926A
:1006D000BF92EF92FF920F931F93CF93DF93CDB70B
:1006E000DEB7A1970FB6F894DEBF0FBECDBF7C0179
:1006F000FA01CB0119A2223008F42AE08E010F5D25
:100700001F4F822E912CB12CA12CBF01A501940169
:100710000E947306F901CA016A300CF5605DD801C8
:100720006E938D01232B242B252B79F790E080E00D
:10073000109721F0BD01C7010E945603A1960FB684
:10074000F894DEBF0FBECDBFDF91CF911F910F9107
:10075000FF90EF90BF90AF909F908F900895695C4D
:10076000DECF0C9456031F920F920FB60F921124F6
:100770002F933F938F939F93AF93BF938091750176
:1007800090917601A0917701B09178013091740138
:1007900023E0230F2D3758F50196A11DB11D20939D
:1007A00074018093750190937601A0937701B093C3
:1007B00078018091700190917101A0917201B091C6
:1007C00073010196A11DB11D809370019093710179
:1007D000A0937201B0937301BF91AF919F918F91DC
:1007E0003F912F910F900FBE0F901F90189526E804
:1007F000230F0296A11DB11DD2CF1F920F920FB6EB
:100800000F9211242F933F934F935F936F937F9396
:100810008F939F93AF93BF93EF93FF9389E791E0FB
:100820000E947001FF91EF91BF91AF919F918F91C5
:100830007F916F915F914F913F912F910F900FBEDC
:100840000F901F9018951F920F920FB60F921124C0
:100850002F938F939F93EF93FF93E0918901F091F2
:100860008A018081E0918F01F091900182FD1BC08F
:100870009081809192018F5F8F73209193018217F5
:1008800041F0E0919201F0E0E758FE4F958F8093A0
:100890009201FF91EF919F918F912F910F900FBE39
:1008A0000F901F9018958081F4CFE9E7F1E0138253
:1008B000128288EE93E0A0E0B0E084839583A68363
:1008C000B78384E091E09183808385EC90E0958705
:1008D000848784EC90E09787868780EC90E0918B0A
:1008E000808B81EC90E0938B828B82EC90E0958BF7
:1008F000848B86EC90E0978B868B118E128E138EF4
:10090000148EE6E1F2E01382128286E191E0918397
:1009100080838CE084838FEF85838BE086838AE0FD
:10092000878389E0808788E0818787E082871386D4
:10093000148615861686178681E00C949F0278949B
:1009400084B5826084BD84B5816084BD85B58260D4
:1009500085BD85B5816085BD80916E008160809385
:100960006E001092810080918100826080938100EE
:1009700080918100816080938100809180008160FE
:10098000809380008091B10084608093B100809159
:10099000B00081608093B00080917A008460809381
:1009A0007A0080917A00826080937A0080917A0048
:1009B000816080937A0080917A00806880937A00C9
:1009C0001092C10086E00E94870085E00E948700A7
:1009D00082E00E949F02E0918901F0918A0182E009
:1009E0008083E0918501F09186011082E09187017A
:1009F000F09188018FEC808310929101E0918D013C
:100A0000F0918E0186E08083E0918B01F0918C0162
:100A1000808180618083E0918B01F0918C018081E5
:100A200088608083E0918B01F0918C0180818068E7
:100A30008083E0918B01F0918C0180818F7D808398
:100A400060E080E00E9441036EE171E086E192E0A7
:100A50000E94B10361E080E00E94410362E271E024
:100A600086E192E00E94B10320E7622E21E0722E1F
:100A700033E6A32E31E0B32E40E0842E40E0942EE6
:100A800066E271E089E791E00E94B1036BE271E0F8
:100A900089E791E00E94B10360E083E00E94410396
:100AA00093E6C92E91E0D92E860160E371E089E7D3
:100AB00091E00E94B103D8014D918D0150E070E0AA
:100AC00060E020E189E791E00E94650369E371E05D
:100AD00089E791E00E94B103F8013197608186E1D6
:100AE00092E00E94500360167106F9F663E371E02C
:100AF00089E791E00E94B10361E083E00E94410335
:100B000089E5E82E81E0F82EE701499150E070E098
:100B100060E020E189E791E00E94650369E371E00C
:100B200089E791E00E94B103FE013197608186E17F
:100B300092E00E945003AC16BD0639F76BE371E0FA
:100B400086E192E00E94B1034091580150E070E0CC
:100B500060E02AE086E192E00E9465036DE371E0C7
:100B600086E192E00E94B10363E471E089E791E0DD
:100B70000E94B10389E791E00E9450010C970CF4A8
:100B80006AC02FB7F8948091750190917601A09179
:100B90007701B09178012FBF8093810190938201FA
:100BA000A0938301B093840189E791E00E942E0114
:100BB00097FF91C02FB7F8948091750190917601BD
:100BC000A0917701B09178012FBF409181015091A0
:100BD00082016091830170918401841B950BA60BA7
:100BE000B70B40917D0150917E0160917F01709122
:100BF000800184179507A607B707B0F280916301BB
:100C000061E08230A1F580916F01833081F585E04C
:100C10000E94A60060E086E00E94A6006FE371E0FB
:100C200089E791E00E94560362E471E089E791E070
:100C30000E945603E4E6F1E08191D7018D937D0196
:100C4000AC17BD07C9F780916E018093580189E701
:100C500091E00E94DF018114910409F411CF0E94F8
:100C60005C01882309F40CCF0E94000009CF86E0C4
:100C70000E94A60060E085E00E94A60065E471E0A5
:100C800089E791E00E94B1036BE471E089E791E0AC
:100C90000E94B1034091630150E070E060E02AE0FF
:100CA00089E791E00E94650361E571E089E791E0E1
:100CB0000E94B10340916F0150E070E060E02AE0D3
:100CC00089E791E00E94650362E471E089E791E0C1
:100CD0000E945603C0CFF60181936F010E171F07C4
:100CE00009F04FCF8BCFA1E21A2EAA1BBB1BFD012F
:100CF0000DC0AA1FBB1FEE1FFF1FA217B307E407FB
:100D0000F50720F0A21BB30BE40BF50B661F771F52
:100D1000881F991F1A9469F7609570958095909532
:100D20009B01AC01BD01CF010895EE0FFF1F05909F
:0A0D3000F491E02D0994F894FFCF30
:100D3A00000000009201F2001F01DF0150012E01A4
:100D4A004201000000005003F2000002FF01494482
:100D5A003A0054473A004C4F4F5000206964200033
:100D6A003078000A207461673A2000280029004F71
:100D7A004B000D0A0046414C48410069642D3E3043
:080D8A000069642D3E313200C6
:00000001FF
